:020000040000FA
:04000000B4EF04F065
:1008000000010000000100010000000100FFFF01E5
:1008100000FFFF0000FFFFFFFF0000FFFF0100FFE0
:10082000FF0200005AD00ABE0AD00A5004E1080EA6
:10083000095CD8A004D0000E0A6E000E096E0AAE44
:1008400004D0000E0A6E070E096E09C007F00AC038
:1008500008F0D89007360836D89007360836010ECB
:100860000724F66E080E0820F76E0900F5CF01F098
:100870000A00F5CF02F0A0EC04F009C007F00AC0AE
:1008800008F0D89007360836D89007360836020E9A
:100890000726000E0822010E0724F66E080E082017
:1008A000F76E0900F5CF01F00A00F5CF02F08CECED
:1008B00004F00D0E076EFC0EE82EFED7072EFCD7B7
:1008C00005040610D8A403D0094A0A2A03D0090651
:1008D000D8A00A060306D8A0040604BE12000450DD
:1008E000A2E10304D8A012009ED7000E936E010E61
:1008F000046E900E036E000E066E010E056E12EC75
:1009000004F0000E046EC80E036E000E066E000E9C
:10091000056E12EC04F0FFD7012805E10228D8A4E7
:1009200002D08A848A9601500210D8A402D08A94F8
:100930008A9601040210D8A412008A948A861200B2
:10094000012805E10228D8A402D08A808A920150A9
:100950000210D8A402D08A908A9201040210D8A46E
:1009600012008A908A8212000A6A096A000EF86EE2
:0A097000080EF76E000175EF04F0A9
:020000040020DA
:08000000FFFFFFFFFFFFFFFF00
:020000040030CA
:0E000000000C1F1FFF8385FF0FC00FE00F4095
:00000001FF
