:020000040000FA
:0400000035EF04F0E4
:1008000000010000000E936E8A808A928A948A9674
:10081000070E016E7D0EE82EFED7012EFCD700F0EC
:100820008A908A928A848A96070E016E7D0EE82E3F
:10083000FED7012EFCD700F08A908A828A948A968D
:10084000070E016E7D0EE82EFED7012EFCD700F0BC
:100850008A908A928A948A86070E016E7D0EE82E0F
:10086000FED7012EFCD700F0CFD7000EF86E080E91
:08087000F76E000102EF04F035
:020000040020DA
:08000000FFFFFFFFFFFFFFFF00
:020000040030CA
:0E000000000C1F1FFF8385FF0FC00FE00F4095
:00000001FF
